{
  "contractName": "Crowdsale",
  "abi": [
    {
      "constant": false,
      "inputs": [],
      "name": "finalizeICO",
      "outputs": [],
      "payable": false,
      "stateMutability": "nonpayable",
      "type": "function"
    },
    {
      "constant": false,
      "inputs": [],
      "name": "pauseICO",
      "outputs": [],
      "payable": false,
      "stateMutability": "nonpayable",
      "type": "function"
    },
    {
      "constant": true,
      "inputs": [],
      "name": "icoState",
      "outputs": [
        {
          "name": "",
          "type": "uint8"
        }
      ],
      "payable": false,
      "stateMutability": "view",
      "type": "function"
    },
    {
      "constant": false,
      "inputs": [
        {
          "name": "_buyer",
          "type": "address"
        }
      ],
      "name": "buyFor",
      "outputs": [],
      "payable": true,
      "stateMutability": "payable",
      "type": "function"
    },
    {
      "constant": false,
      "inputs": [],
      "name": "acceptOwnership",
      "outputs": [],
      "payable": false,
      "stateMutability": "nonpayable",
      "type": "function"
    },
    {
      "constant": true,
      "inputs": [],
      "name": "owner",
      "outputs": [
        {
          "name": "",
          "type": "address"
        }
      ],
      "payable": false,
      "stateMutability": "view",
      "type": "function"
    },
    {
      "constant": false,
      "inputs": [
        {
          "name": "stage",
          "type": "uint256"
        },
        {
          "name": "activeICO",
          "type": "bool"
        }
      ],
      "name": "setStageICO",
      "outputs": [],
      "payable": false,
      "stateMutability": "nonpayable",
      "type": "function"
    },
    {
      "constant": true,
      "inputs": [
        {
          "name": "_ether",
          "type": "uint256"
        }
      ],
      "name": "GetAmountTokensPerETH",
      "outputs": [
        {
          "name": "",
          "type": "uint256"
        }
      ],
      "payable": false,
      "stateMutability": "view",
      "type": "function"
    },
    {
      "constant": true,
      "inputs": [],
      "name": "newOwner",
      "outputs": [
        {
          "name": "",
          "type": "address"
        }
      ],
      "payable": false,
      "stateMutability": "view",
      "type": "function"
    },
    {
      "constant": false,
      "inputs": [
        {
          "name": "_newOwner",
          "type": "address"
        }
      ],
      "name": "transferOwnership",
      "outputs": [],
      "payable": false,
      "stateMutability": "nonpayable",
      "type": "function"
    },
    {
      "constant": true,
      "inputs": [],
      "name": "GetCurrentStageICO",
      "outputs": [
        {
          "name": "",
          "type": "string"
        }
      ],
      "payable": false,
      "stateMutability": "view",
      "type": "function"
    },
    {
      "constant": true,
      "inputs": [],
      "name": "token",
      "outputs": [
        {
          "name": "",
          "type": "address"
        }
      ],
      "payable": false,
      "stateMutability": "view",
      "type": "function"
    },
    {
      "inputs": [
        {
          "name": "_tokenAddress",
          "type": "address"
        }
      ],
      "payable": false,
      "stateMutability": "nonpayable",
      "type": "constructor"
    },
    {
      "payable": true,
      "stateMutability": "payable",
      "type": "fallback"
    },
    {
      "anonymous": false,
      "inputs": [
        {
          "indexed": false,
          "name": "active",
          "type": "bool"
        }
      ],
      "name": "StageIcoChanged",
      "type": "event"
    },
    {
      "anonymous": false,
      "inputs": [
        {
          "indexed": true,
          "name": "purchaser",
          "type": "address"
        },
        {
          "indexed": true,
          "name": "beneficiary",
          "type": "address"
        },
        {
          "indexed": false,
          "name": "value",
          "type": "uint256"
        },
        {
          "indexed": false,
          "name": "amount",
          "type": "uint256"
        }
      ],
      "name": "TokenPurchase",
      "type": "event"
    },
    {
      "anonymous": false,
      "inputs": [
        {
          "indexed": true,
          "name": "previousOwner",
          "type": "address"
        },
        {
          "indexed": true,
          "name": "newOwner",
          "type": "address"
        }
      ],
      "name": "OwnershipTransferred",
      "type": "event"
    }
  ],
  "bytecode": "0x60606040526000600260006101000a81548173ffffffffffffffffffffffffffffffffffffffff021916908373ffffffffffffffffffffffffffffffffffffffff1602179055506000600360006101000a81548173ffffffffffffffffffffffffffffffffffffffff021916908373ffffffffffffffffffffffffffffffffffffffff1602179055506000600460006101000a81548173ffffffffffffffffffffffffffffffffffffffff021916908373ffffffffffffffffffffffffffffffffffffffff1602179055506000600560006101000a81548173ffffffffffffffffffffffffffffffffffffffff021916908373ffffffffffffffffffffffffffffffffffffffff1602179055506000600660006101000a81548173ffffffffffffffffffffffffffffffffffffffff021916908373ffffffffffffffffffffffffffffffffffffffff1602179055506000600760006101000a81548173ffffffffffffffffffffffffffffffffffffffff021916908373ffffffffffffffffffffffffffffffffffffffff1602179055506000600860006101000a81548173ffffffffffffffffffffffffffffffffffffffff021916908373ffffffffffffffffffffffffffffffffffffffff160217905550600060095560006016556000601760006101000a81548160ff02191690836002811115620001fc57fe5b021790555034156200020d57600080fd5b60405160208062001cc983398101604052808051906020019091905050336000806101000a81548173ffffffffffffffffffffffffffffffffffffffff021916908373ffffffffffffffffffffffffffffffffffffffff160217905550600073ffffffffffffffffffffffffffffffffffffffff168173ffffffffffffffffffffffffffffffffffffffff1614151515620002a757600080fd5b80600260006101000a81548173ffffffffffffffffffffffffffffffffffffffff021916908373ffffffffffffffffffffffffffffffffffffffff160217905550620003066200030d64010000000002620016d4176401000000009004565b5062000469565b6103e8601060006006811015156200032157fe5b0181905550610320601060016006811015156200033a57fe5b01819055506102bc601060026006811015156200035357fe5b0181905550610258601060036006811015156200036c57fe5b0181905550610226601060046006811015156200038557fe5b01819055506101f4601060056006811015156200039e57fe5b0181905550686c6b935b8bbd400000600a6000600681101515620003be57fe5b018190555068d8c9460063d31c0000600a6001600681101515620003de57fe5b018190555069014534d95bef905c0000600a6002600681101515620003ff57fe5b01819055506901b1a06cb77b4d9c0000600a60036006811015156200042057fe5b018190555069021e0c0013070adc0000600a60046006811015156200044157fe5b018190555069028a77936e92c81c0000600a60056006811015156200046257fe5b0181905550565b61185080620004796000396000f3006060604052600436106100ba576000357c0100000000000000000000000000000000000000000000000000000000900463ffffffff16806323cc75a8146100c557806333c77a6d146100da57806344f38756146100ef5780636f0b51801461012657806379ba5097146101545780638da5cb5b14610169578063a0aa6238146101be578063af279c6d146101ec578063d4ee1d9014610223578063f2fde38b14610278578063f32f6f1d146102b1578063fc0c546a1461033f575b6100c333610394565b005b34156100d057600080fd5b6100d86105c7565b005b34156100e557600080fd5b6100ed610e46565b005b34156100fa57600080fd5b610102610f66565b6040518082600281111561011257fe5b60ff16815260200191505060405180910390f35b610152600480803573ffffffffffffffffffffffffffffffffffffffff16906020019091905050610394565b005b341561015f57600080fd5b610167610f79565b005b341561017457600080fd5b61017c6110d6565b604051808273ffffffffffffffffffffffffffffffffffffffff1673ffffffffffffffffffffffffffffffffffffffff16815260200191505060405180910390f35b34156101c957600080fd5b6101ea600480803590602001909190803515159060200190919050506110fb565b005b34156101f757600080fd5b61020d6004808035906020019091905050611337565b6040518082815260200191505060405180910390f35b341561022e57600080fd5b610236611355565b604051808273ffffffffffffffffffffffffffffffffffffffff1673ffffffffffffffffffffffffffffffffffffffff16815260200191505060405180910390f35b341561028357600080fd5b6102af600480803573ffffffffffffffffffffffffffffffffffffffff1690602001909190505061137b565b005b34156102bc57600080fd5b6102c461141a565b6040518080602001828103825283818151815260200191508051906020019080838360005b838110156103045780820151818401526020810190506102e9565b50505050905090810190601f1680156103315780820380516001836020036101000a031916815260200191505b509250505060405180910390f35b341561034a57600080fd5b610352611533565b604051808273ffffffffffffffffffffffffffffffffffffffff1673ffffffffffffffffffffffffffffffffffffffff16815260200191505060405180910390f35b600080600060028111156103a457fe5b601760009054906101000a900460ff1660028111156103bf57fe5b141515156103cc57600080fd5b349150686c6b935b8bbd40000082111515156103e757600080fd5b600160028111156103f457fe5b601760009054906101000a900460ff16600281111561040f57fe5b141561044a576801158e460913d00000821015151561042d57600080fd5b686c6b935b8bbd40000082600954011115151561044957600080fd5b5b61045382611559565b905081600960008282540192505081905550600260009054906101000a900473ffffffffffffffffffffffffffffffffffffffff1673ffffffffffffffffffffffffffffffffffffffff166340c10f1984836000604051602001526040518363ffffffff167c0100000000000000000000000000000000000000000000000000000000028152600401808373ffffffffffffffffffffffffffffffffffffffff1673ffffffffffffffffffffffffffffffffffffffff16815260200182815260200192505050602060405180830381600087803b151561053257600080fd5b6102c65a03f1151561054357600080fd5b50505060405180519050151561055557fe5b8273ffffffffffffffffffffffffffffffffffffffff163373ffffffffffffffffffffffffffffffffffffffff167f623b3804fa71d67900d064613da8f94b9617215ee90799290593e1745087ad188484604051808381526020018281526020019250505060405180910390a3505050565b6000806000809054906101000a900473ffffffffffffffffffffffffffffffffffffffff1673ffffffffffffffffffffffffffffffffffffffff163373ffffffffffffffffffffffffffffffffffffffff1614151561062557600080fd5b6000600281111561063257fe5b601760009054906101000a900460ff16600281111561064d57fe5b14151561065957600080fd5b600260009054906101000a900473ffffffffffffffffffffffffffffffffffffffff1673ffffffffffffffffffffffffffffffffffffffff166318160ddd6000604051602001526040518163ffffffff167c0100000000000000000000000000000000000000000000000000000000028152600401602060405180830381600087803b15156106e757600080fd5b6102c65a03f115156106f857600080fd5b50505060405180519050915060238281151561071057fe5b049050600260009054906101000a900473ffffffffffffffffffffffffffffffffffffffff1673ffffffffffffffffffffffffffffffffffffffff166340c10f19600860009054906101000a900473ffffffffffffffffffffffffffffffffffffffff16600e84026000604051602001526040518363ffffffff167c0100000000000000000000000000000000000000000000000000000000028152600401808373ffffffffffffffffffffffffffffffffffffffff1673ffffffffffffffffffffffffffffffffffffffff16815260200182815260200192505050602060405180830381600087803b151561080557600080fd5b6102c65a03f1151561081657600080fd5b50505060405180519050151561082857fe5b600260009054906101000a900473ffffffffffffffffffffffffffffffffffffffff1673ffffffffffffffffffffffffffffffffffffffff166340c10f19600360009054906101000a900473ffffffffffffffffffffffffffffffffffffffff16600584026000604051602001526040518363ffffffff167c0100000000000000000000000000000000000000000000000000000000028152600401808373ffffffffffffffffffffffffffffffffffffffff1673ffffffffffffffffffffffffffffffffffffffff16815260200182815260200192505050602060405180830381600087803b151561091a57600080fd5b6102c65a03f1151561092b57600080fd5b50505060405180519050151561093d57fe5b600260009054906101000a900473ffffffffffffffffffffffffffffffffffffffff1673ffffffffffffffffffffffffffffffffffffffff166340c10f19600460009054906101000a900473ffffffffffffffffffffffffffffffffffffffff16600384026000604051602001526040518363ffffffff167c0100000000000000000000000000000000000000000000000000000000028152600401808373ffffffffffffffffffffffffffffffffffffffff1673ffffffffffffffffffffffffffffffffffffffff16815260200182815260200192505050602060405180830381600087803b1515610a2f57600080fd5b6102c65a03f11515610a4057600080fd5b505050604051805190501515610a5257fe5b600260009054906101000a900473ffffffffffffffffffffffffffffffffffffffff1673ffffffffffffffffffffffffffffffffffffffff166340c10f19600660009054906101000a900473ffffffffffffffffffffffffffffffffffffffff16600284026000604051602001526040518363ffffffff167c0100000000000000000000000000000000000000000000000000000000028152600401808373ffffffffffffffffffffffffffffffffffffffff1673ffffffffffffffffffffffffffffffffffffffff16815260200182815260200192505050602060405180830381600087803b1515610b4457600080fd5b6102c65a03f11515610b5557600080fd5b505050604051805190501515610b6757fe5b600260009054906101000a900473ffffffffffffffffffffffffffffffffffffffff1673ffffffffffffffffffffffffffffffffffffffff166340c10f19600560009054906101000a900473ffffffffffffffffffffffffffffffffffffffff16600184026000604051602001526040518363ffffffff167c0100000000000000000000000000000000000000000000000000000000028152600401808373ffffffffffffffffffffffffffffffffffffffff1673ffffffffffffffffffffffffffffffffffffffff16815260200182815260200192505050602060405180830381600087803b1515610c5957600080fd5b6102c65a03f11515610c6a57600080fd5b505050604051805190501515610c7c57fe5b600260009054906101000a900473ffffffffffffffffffffffffffffffffffffffff1673ffffffffffffffffffffffffffffffffffffffff166340c10f19600760009054906101000a900473ffffffffffffffffffffffffffffffffffffffff16602884026000604051602001526040518363ffffffff167c0100000000000000000000000000000000000000000000000000000000028152600401808373ffffffffffffffffffffffffffffffffffffffff1673ffffffffffffffffffffffffffffffffffffffff16815260200182815260200192505050602060405180830381600087803b1515610d6e57600080fd5b6102c65a03f11515610d7f57600080fd5b505050604051805190501515610d9157fe5b600260009054906101000a900473ffffffffffffffffffffffffffffffffffffffff1673ffffffffffffffffffffffffffffffffffffffff16637d64bcb46000604051602001526040518163ffffffff167c0100000000000000000000000000000000000000000000000000000000028152600401602060405180830381600087803b1515610e1f57600080fd5b6102c65a03f11515610e3057600080fd5b505050604051805190501515610e4257fe5b5050565b6000809054906101000a900473ffffffffffffffffffffffffffffffffffffffff1673ffffffffffffffffffffffffffffffffffffffff163373ffffffffffffffffffffffffffffffffffffffff16141515610ea157600080fd5b60016002811115610eae57fe5b601760009054906101000a900460ff166002811115610ec957fe5b1480610ef95750600280811115610edc57fe5b601760009054906101000a900460ff166002811115610ef757fe5b145b1515610f0457600080fd5b6000601760006101000a81548160ff02191690836002811115610f2357fe5b02179055507fac577dd16d34f66613a04987c70ca92fdd29c9f22f58ff5dfb7603ad814ea60c6000604051808215151515815260200191505060405180910390a1565b601760009054906101000a900460ff1681565b600160009054906101000a900473ffffffffffffffffffffffffffffffffffffffff1673ffffffffffffffffffffffffffffffffffffffff163373ffffffffffffffffffffffffffffffffffffffff16141515610fd557600080fd5b600160009054906101000a900473ffffffffffffffffffffffffffffffffffffffff1673ffffffffffffffffffffffffffffffffffffffff166000809054906101000a900473ffffffffffffffffffffffffffffffffffffffff1673ffffffffffffffffffffffffffffffffffffffff167f8be0079c531659141344cd1fd0a4f28419497f9722a3daafe3b4186f6b6457e060405160405180910390a3600160009054906101000a900473ffffffffffffffffffffffffffffffffffffffff166000806101000a81548173ffffffffffffffffffffffffffffffffffffffff021916908373ffffffffffffffffffffffffffffffffffffffff160217905550565b6000809054906101000a900473ffffffffffffffffffffffffffffffffffffffff1681565b60008060009054906101000a900473ffffffffffffffffffffffffffffffffffffffff1673ffffffffffffffffffffffffffffffffffffffff163373ffffffffffffffffffffffffffffffffffffffff1614151561115857600080fd5b81156111d9576001600281111561116b57fe5b83141561119b576001601760006101000a81548160ff0219169083600281111561119157fe5b02179055506111d4565b6002808111156111a757fe5b8314156111d3576002601760006101000a81548160ff021916908360028111156111cd57fe5b02179055505b5b6112f7565b3073ffffffffffffffffffffffffffffffffffffffff16319050600360009054906101000a900473ffffffffffffffffffffffffffffffffffffffff1673ffffffffffffffffffffffffffffffffffffffff166108fc606360648481151561123d57fe5b04029081150290604051600060405180830381858888f19350505050151561126457600080fd5b600460009054906101000a900473ffffffffffffffffffffffffffffffffffffffff1673ffffffffffffffffffffffffffffffffffffffff166108fc6064838115156112ac57fe5b049081150290604051600060405180830381858888f1935050505015156112d257600080fd5b6000601760006101000a81548160ff021916908360028111156112f157fe5b02179055505b7fac577dd16d34f66613a04987c70ca92fdd29c9f22f58ff5dfb7603ad814ea60c82604051808215151515815260200191505060405180910390a1505050565b600081601060165460068110151561134b57fe5b0154029050919050565b600160009054906101000a900473ffffffffffffffffffffffffffffffffffffffff1681565b6000809054906101000a900473ffffffffffffffffffffffffffffffffffffffff1673ffffffffffffffffffffffffffffffffffffffff163373ffffffffffffffffffffffffffffffffffffffff161415156113d657600080fd5b80600160006101000a81548173ffffffffffffffffffffffffffffffffffffffff021916908373ffffffffffffffffffffffffffffffffffffffff16021790555050565b6114226116c0565b60028081111561142e57fe5b601760009054906101000a900460ff16600281111561144957fe5b141561148c576040805190810160405280600d81526020017f49434f20697320676f696e672e000000000000000000000000000000000000008152509050611530565b6001600281111561149957fe5b601760009054906101000a900460ff1660028111156114b457fe5b14156114f7576040805190810160405280601081526020017f50726549434f20697320676f696e672e000000000000000000000000000000008152509050611530565b6040805190810160405280600e81526020017f49434f206973207061757365642e00000000000000000000000000000000000081525090505b90565b600260009054906101000a900473ffffffffffffffffffffffffffffffffffffffff1681565b6000600a60165460068110151561156c57fe5b015482600954011015156116a057600954600a60165460068110151561158e57fe5b01540360106016546006811015156115a257fe5b0154028101905060056016541480156115ce5750601960106016546006811015156115c957fe5b015410155b1561165357601960106016546006811015156115e657fe5b0160008282540392505081905550600a60165460068110151561160557fe5b0154826009540103601060165460068110151561161e57fe5b01540281019050686c6b935b8bbd400000600a60165460068110151561164057fe5b0160008282540192505081905550611698565b60166000815460010191905081905550600a60016016540360068110151561167757fe5b0154826009540103601060165460068110151561169057fe5b015402810190505b8090506116bb565b8160106016546006811015156116b257fe5b01540290508090505b919050565b602060405190810160405280600081525090565b6103e8601060006006811015156116e757fe5b0181905550610320601060016006811015156116ff57fe5b01819055506102bc6010600260068110151561171757fe5b01819055506102586010600360068110151561172f57fe5b01819055506102266010600460068110151561174757fe5b01819055506101f46010600560068110151561175f57fe5b0181905550686c6b935b8bbd400000600a600060068110151561177e57fe5b018190555068d8c9460063d31c0000600a600160068110151561179d57fe5b018190555069014534d95bef905c0000600a60026006811015156117bd57fe5b01819055506901b1a06cb77b4d9c0000600a60036006811015156117dd57fe5b018190555069021e0c0013070adc0000600a60046006811015156117fd57fe5b018190555069028a77936e92c81c0000600a600560068110151561181d57fe5b01819055505600a165627a7a72305820ec90e91d1dc23b802f2203e5dc4ad19b6a9d22ecfaf5af24bd9b85fec6ac98630029",
  "source": "pragma solidity ^0.4.18;\r\n\r\nimport './SafeMath.sol';\r\nimport \"./Ownable.sol\";\r\nimport './GGlobalToken.sol';\r\n  \r\ncontract IToken {\r\n    uint256 public totalSupply;\r\n    function mint(address _to, uint _amount) public returns(bool);\r\n    function balanceOf(address _who) public view returns (uint256);\r\n    function finishMinting() public returns(bool);\r\n}\r\n\r\ncontract Crowdsale is Ownable {\r\n     using SafeMath for uint256;\r\n    \r\n     address public token = 0x0;\r\n  \r\n     address advisors1 = 0x0;\r\n     address advisors2 = 0x0;\r\n     address referral = 0x0;\r\n     address bounty = 0x0;\r\n     address treasury = 0x0;\r\n     address team = 0x0; \r\n\r\n     uint curWeiRaised = 0;  \r\n \r\n     uint[6] weiRaised;\r\n     uint[6] tokenPerEth;  \r\n     uint indxCurCoeffic = 0;\r\n\r\n     enum IcoState { Paused, PreICO, ICO }\r\n     IcoState public icoState = IcoState.Paused;\r\n \r\n     event StageIcoChanged(bool active); \r\n     event TokenPurchase(address indexed purchaser, address indexed beneficiary, uint256 value, uint256 amount);\r\n\r\n     function Crowdsale(address _tokenAddress) public {\r\n         require(_tokenAddress != address(0));\r\n         token = _tokenAddress;  \r\n\r\n         initializeTokenPriceRanges();\r\n     }\r\n\r\n     function initializeTokenPriceRanges() private {\r\n         tokenPerEth[0] = 1000;\r\n         tokenPerEth[1] = 800;\r\n         tokenPerEth[2] = 700;\r\n         tokenPerEth[3] = 600; \r\n         tokenPerEth[4] = 550; \r\n         tokenPerEth[5] = 500; \r\n\r\n         weiRaised[0] = 2000 ether;\r\n         weiRaised[1] = 3999 ether;\r\n         weiRaised[2] = 5999 ether;\r\n         weiRaised[3] = 7999 ether;\r\n         weiRaised[4] = 9999 ether; \r\n          weiRaised[5] = 11999 ether; \r\n     }  \r\n\r\n     function setStageICO(uint stage, bool activeICO) external onlyOwner {\r\n         if(activeICO) {\r\n             if (stage == uint(IcoState.PreICO)) { \r\n                 icoState = IcoState.PreICO; \r\n             } else if (stage == uint(IcoState.ICO)) {\r\n                 icoState = IcoState.ICO;  \r\n             }\r\n         } else {\r\n             uint contractBalance = this.balance;  \r\n\r\n             advisors1.transfer(contractBalance / 100 * 99);\r\n             advisors2.transfer(contractBalance / 100); \r\n\r\n             icoState = IcoState.Paused;  \r\n         }\r\n          \r\n         StageIcoChanged(activeICO);\r\n     } \r\n\r\n     function pauseICO() external onlyOwner {\r\n         require(icoState == IcoState.PreICO || icoState == IcoState.ICO);\r\n         icoState = IcoState.Paused;\r\n         StageIcoChanged(false);\r\n     }\r\n\r\n     function () external payable {\r\n         buyFor(msg.sender);\r\n     }\r\n\r\n     function buyFor(address _buyer) public payable {\r\n         require(icoState != IcoState.Paused);\r\n \r\n         uint weiAmount = msg.value; \r\n\r\n         require(weiAmount <= 2000 ether);\r\n          \r\n         if(icoState == IcoState.PreICO) {\r\n             require(weiAmount >= 20 ether);\r\n             require(curWeiRaised + weiAmount <= 2000 ether);\r\n         }\r\n         \r\n         uint tokenAmount = getAmountTokens(weiAmount);\r\n         \r\n         curWeiRaised += weiAmount;\r\n\r\n         assert(IToken(token).mint(_buyer, tokenAmount)); \r\n         TokenPurchase(msg.sender, _buyer, weiAmount, tokenAmount);\r\n     } \r\n  \r\n     function getAmountTokens(uint _eth) private returns(uint amount) { \r\n         if (curWeiRaised + _eth >= weiRaised[indxCurCoeffic]) {\r\n            \r\n            amount += tokenPerEth[indxCurCoeffic] * (weiRaised[indxCurCoeffic] - curWeiRaised);\r\n             \r\n            if (indxCurCoeffic == 5 && tokenPerEth[indxCurCoeffic] >= 25) {\r\n                tokenPerEth[indxCurCoeffic] -= 25;\r\n                amount += tokenPerEth[indxCurCoeffic] * (curWeiRaised + _eth - weiRaised[indxCurCoeffic]); \r\n                weiRaised[indxCurCoeffic] += 2000 ether; \r\n            } else {\r\n                ++indxCurCoeffic; \r\n                amount += tokenPerEth[indxCurCoeffic] * (curWeiRaised + _eth - weiRaised[indxCurCoeffic - 1]); \r\n            }  \r\n            return amount;\r\n         } \r\n         \r\n         amount = tokenPerEth[indxCurCoeffic] * _eth;\r\n         return amount;\r\n     }  \r\n      \r\n     function finalizeICO() external onlyOwner { \r\n         require(icoState == IcoState.Paused);\r\n         uint totalTokensCreated = IToken(token).totalSupply(); \r\n         uint onePersent = totalTokensCreated / 35; \r\n         \r\n         assert(IToken(token).mint(team, onePersent * 14));\r\n         assert(IToken(token).mint(advisors1, onePersent * 5));\r\n         assert(IToken(token).mint(advisors2, onePersent * 3));\r\n         assert(IToken(token).mint(bounty, onePersent * 2));\r\n         assert(IToken(token).mint(referral, onePersent * 1));          \r\n         assert(IToken(token).mint(treasury, onePersent * 40)); \r\n\r\n         assert(IToken(token).finishMinting());\r\n     } \r\n\r\n     function GetAmountTokensPerETH(uint _ether) public view returns(uint) {\r\n         return tokenPerEth[indxCurCoeffic] * _ether;\r\n     }\r\n\r\n     function GetCurrentStageICO() public view returns(string) {\r\n         if(icoState == IcoState.ICO) {\r\n             return \"ICO is going.\";\r\n         } \r\n         else if(icoState == IcoState.PreICO) {\r\n             return \"PreICO is going.\";\r\n         } else {\r\n             return \"ICO is paused.\";\r\n         }\r\n     } \r\n}",
  "sourcePath": "C:\\Users\\developer\\Desktop\\Ethereum___project\\G_global_project\\G_global\\contracts\\Crowdsale.sol",
  "compiler": {
    "name": "solc",
    "version": "0.4.18+commit.9cf6e910.Emscripten.clang"
  },
  "schemaVersion": "1.0.1",
  "updatedAt": "2018-01-26T10:56:48.265Z"
}